{
  "contractName": "OniGear",
  "abi": [
    {
      "inputs": [],
      "stateMutability": "nonpayable",
      "type": "constructor"
    },
    {
      "anonymous": false,
      "inputs": [
        {
          "indexed": true,
          "internalType": "address",
          "name": "owner",
          "type": "address"
        },
        {
          "indexed": true,
          "internalType": "address",
          "name": "approved",
          "type": "address"
        },
        {
          "indexed": true,
          "internalType": "uint256",
          "name": "tokenId",
          "type": "uint256"
        }
      ],
      "name": "Approval",
      "type": "event"
    },
    {
      "anonymous": false,
      "inputs": [
        {
          "indexed": true,
          "internalType": "address",
          "name": "owner",
          "type": "address"
        },
        {
          "indexed": true,
          "internalType": "address",
          "name": "operator",
          "type": "address"
        },
        {
          "indexed": false,
          "internalType": "bool",
          "name": "approved",
          "type": "bool"
        }
      ],
      "name": "ApprovalForAll",
      "type": "event"
    },
    {
      "anonymous": false,
      "inputs": [
        {
          "indexed": true,
          "internalType": "address",
          "name": "previousOwner",
          "type": "address"
        },
        {
          "indexed": true,
          "internalType": "address",
          "name": "newOwner",
          "type": "address"
        }
      ],
      "name": "OwnershipTransferred",
      "type": "event"
    },
    {
      "anonymous": false,
      "inputs": [
        {
          "indexed": true,
          "internalType": "address",
          "name": "from",
          "type": "address"
        },
        {
          "indexed": true,
          "internalType": "address",
          "name": "to",
          "type": "address"
        },
        {
          "indexed": true,
          "internalType": "uint256",
          "name": "tokenId",
          "type": "uint256"
        }
      ],
      "name": "Transfer",
      "type": "event"
    },
    {
      "inputs": [],
      "name": "ONI_GIFT",
      "outputs": [
        {
          "internalType": "uint256",
          "name": "",
          "type": "uint256"
        }
      ],
      "stateMutability": "view",
      "type": "function",
      "constant": true
    },
    {
      "inputs": [],
      "name": "ONI_MAX",
      "outputs": [
        {
          "internalType": "uint256",
          "name": "",
          "type": "uint256"
        }
      ],
      "stateMutability": "view",
      "type": "function",
      "constant": true
    },
    {
      "inputs": [],
      "name": "ONI_PUBLIC",
      "outputs": [
        {
          "internalType": "uint256",
          "name": "",
          "type": "uint256"
        }
      ],
      "stateMutability": "view",
      "type": "function",
      "constant": true
    },
    {
      "inputs": [],
      "name": "PRICE_ONI",
      "outputs": [
        {
          "internalType": "uint256",
          "name": "",
          "type": "uint256"
        }
      ],
      "stateMutability": "view",
      "type": "function",
      "constant": true
    },
    {
      "inputs": [],
      "name": "PRICE_PUBLIC",
      "outputs": [
        {
          "internalType": "uint256",
          "name": "",
          "type": "uint256"
        }
      ],
      "stateMutability": "view",
      "type": "function",
      "constant": true
    },
    {
      "inputs": [],
      "name": "PURCHASE_LIMIT",
      "outputs": [
        {
          "internalType": "uint256",
          "name": "",
          "type": "uint256"
        }
      ],
      "stateMutability": "view",
      "type": "function",
      "constant": true
    },
    {
      "inputs": [],
      "name": "RESERVE",
      "outputs": [
        {
          "internalType": "uint256",
          "name": "",
          "type": "uint256"
        }
      ],
      "stateMutability": "view",
      "type": "function",
      "constant": true
    },
    {
      "inputs": [],
      "name": "activated",
      "outputs": [
        {
          "internalType": "bool",
          "name": "",
          "type": "bool"
        }
      ],
      "stateMutability": "view",
      "type": "function",
      "constant": true
    },
    {
      "inputs": [
        {
          "internalType": "address",
          "name": "to",
          "type": "address"
        },
        {
          "internalType": "uint256",
          "name": "tokenId",
          "type": "uint256"
        }
      ],
      "name": "approve",
      "outputs": [],
      "stateMutability": "nonpayable",
      "type": "function"
    },
    {
      "inputs": [
        {
          "internalType": "address",
          "name": "owner",
          "type": "address"
        }
      ],
      "name": "balanceOf",
      "outputs": [
        {
          "internalType": "uint256",
          "name": "",
          "type": "uint256"
        }
      ],
      "stateMutability": "view",
      "type": "function",
      "constant": true
    },
    {
      "inputs": [
        {
          "internalType": "uint256",
          "name": "tokenId",
          "type": "uint256"
        }
      ],
      "name": "getApproved",
      "outputs": [
        {
          "internalType": "address",
          "name": "",
          "type": "address"
        }
      ],
      "stateMutability": "view",
      "type": "function",
      "constant": true
    },
    {
      "inputs": [],
      "name": "isAllowListActive",
      "outputs": [
        {
          "internalType": "bool",
          "name": "",
          "type": "bool"
        }
      ],
      "stateMutability": "view",
      "type": "function",
      "constant": true
    },
    {
      "inputs": [
        {
          "internalType": "address",
          "name": "owner",
          "type": "address"
        },
        {
          "internalType": "address",
          "name": "operator",
          "type": "address"
        }
      ],
      "name": "isApprovedForAll",
      "outputs": [
        {
          "internalType": "bool",
          "name": "",
          "type": "bool"
        }
      ],
      "stateMutability": "view",
      "type": "function",
      "constant": true
    },
    {
      "inputs": [],
      "name": "name",
      "outputs": [
        {
          "internalType": "string",
          "name": "",
          "type": "string"
        }
      ],
      "stateMutability": "view",
      "type": "function",
      "constant": true
    },
    {
      "inputs": [],
      "name": "owner",
      "outputs": [
        {
          "internalType": "address",
          "name": "",
          "type": "address"
        }
      ],
      "stateMutability": "view",
      "type": "function",
      "constant": true
    },
    {
      "inputs": [
        {
          "internalType": "uint256",
          "name": "tokenId",
          "type": "uint256"
        }
      ],
      "name": "ownerOf",
      "outputs": [
        {
          "internalType": "address",
          "name": "",
          "type": "address"
        }
      ],
      "stateMutability": "view",
      "type": "function",
      "constant": true
    },
    {
      "inputs": [],
      "name": "renounceOwnership",
      "outputs": [],
      "stateMutability": "nonpayable",
      "type": "function"
    },
    {
      "inputs": [
        {
          "internalType": "address",
          "name": "from",
          "type": "address"
        },
        {
          "internalType": "address",
          "name": "to",
          "type": "address"
        },
        {
          "internalType": "uint256",
          "name": "tokenId",
          "type": "uint256"
        }
      ],
      "name": "safeTransferFrom",
      "outputs": [],
      "stateMutability": "nonpayable",
      "type": "function"
    },
    {
      "inputs": [
        {
          "internalType": "address",
          "name": "from",
          "type": "address"
        },
        {
          "internalType": "address",
          "name": "to",
          "type": "address"
        },
        {
          "internalType": "uint256",
          "name": "tokenId",
          "type": "uint256"
        },
        {
          "internalType": "bytes",
          "name": "_data",
          "type": "bytes"
        }
      ],
      "name": "safeTransferFrom",
      "outputs": [],
      "stateMutability": "nonpayable",
      "type": "function"
    },
    {
      "inputs": [
        {
          "internalType": "address",
          "name": "operator",
          "type": "address"
        },
        {
          "internalType": "bool",
          "name": "approved",
          "type": "bool"
        }
      ],
      "name": "setApprovalForAll",
      "outputs": [],
      "stateMutability": "nonpayable",
      "type": "function"
    },
    {
      "inputs": [
        {
          "internalType": "bytes4",
          "name": "interfaceId",
          "type": "bytes4"
        }
      ],
      "name": "supportsInterface",
      "outputs": [
        {
          "internalType": "bool",
          "name": "",
          "type": "bool"
        }
      ],
      "stateMutability": "view",
      "type": "function",
      "constant": true
    },
    {
      "inputs": [],
      "name": "symbol",
      "outputs": [
        {
          "internalType": "string",
          "name": "",
          "type": "string"
        }
      ],
      "stateMutability": "view",
      "type": "function",
      "constant": true
    },
    {
      "inputs": [
        {
          "internalType": "address",
          "name": "from",
          "type": "address"
        },
        {
          "internalType": "address",
          "name": "to",
          "type": "address"
        },
        {
          "internalType": "uint256",
          "name": "tokenId",
          "type": "uint256"
        }
      ],
      "name": "transferFrom",
      "outputs": [],
      "stateMutability": "nonpayable",
      "type": "function"
    },
    {
      "inputs": [
        {
          "internalType": "address",
          "name": "newOwner",
          "type": "address"
        }
      ],
      "name": "transferOwnership",
      "outputs": [],
      "stateMutability": "nonpayable",
      "type": "function"
    },
    {
      "inputs": [
        {
          "internalType": "uint256",
          "name": "tokenId",
          "type": "uint256"
        }
      ],
      "name": "tokenURI",
      "outputs": [
        {
          "internalType": "string",
          "name": "",
          "type": "string"
        }
      ],
      "stateMutability": "view",
      "type": "function",
      "constant": true
    },
    {
      "inputs": [],
      "name": "totalSupply",
      "outputs": [
        {
          "internalType": "uint256",
          "name": "supply",
          "type": "uint256"
        }
      ],
      "stateMutability": "view",
      "type": "function",
      "constant": true
    },
    {
      "inputs": [
        {
          "internalType": "bool",
          "name": "_isActive",
          "type": "bool"
        }
      ],
      "name": "setIsActive",
      "outputs": [],
      "stateMutability": "nonpayable",
      "type": "function"
    },
    {
      "inputs": [
        {
          "internalType": "bool",
          "name": "_isAllowListActive",
          "type": "bool"
        }
      ],
      "name": "setIsAllowListActive",
      "outputs": [],
      "stateMutability": "nonpayable",
      "type": "function"
    },
    {
      "inputs": [
        {
          "internalType": "uint256",
          "name": "numberOfTokens",
          "type": "uint256"
        }
      ],
      "name": "purchase",
      "outputs": [],
      "stateMutability": "payable",
      "type": "function",
      "payable": true
    },
    {
      "inputs": [
        {
          "internalType": "address",
          "name": "oniAddress",
          "type": "address"
        }
      ],
      "name": "setOniContractAddress",
      "outputs": [],
      "stateMutability": "nonpayable",
      "type": "function"
    },
    {
      "inputs": [],
      "name": "claimAllTokens",
      "outputs": [],
      "stateMutability": "payable",
      "type": "function",
      "payable": true
    }
  ],
  "bytecode": "0x60806040526040518061010001604052807f5052494d41525920574541504f4e00000000000000000000000000000000000081526020017f5345434f4e4441525920574541504f4e0000000000000000000000000000000081526020017f5052494d41525920574541504f4e00000000000000000000000000000000000081526020017f5345434f4e4441525920574541504f4e0000000000000000000000000000000081526020017f5052494d41525920574541504f4e00000000000000000000000000000000000081526020017f5345434f4e4441525920574541504f4e0000000000000000000000000000000081526020017f5052494d41525920574541504f4e00000000000000000000000000000000000081526020017f5345434f4e4441525920574541504f4e00000000000000000000000000000000815250600e9060086200015092919062000c1b565b5060405180606001604052806040518060400160405280600881526020017f6f6620506f77657200000000000000000000000000000000000000000000000081525081526020016040518060400160405280600981526020017f6f66204769616e7473000000000000000000000000000000000000000000000081525081526020016040518060400160405280600c81526020017f6f6620746865205477696e730000000000000000000000000000000000000000815250815250600f9060036200021d92919062000c6d565b506040518060c001604052806040518060400160405280600581526020017f41676f6e7900000000000000000000000000000000000000000000000000000081525081526020016040518060400160405280600a81526020017f41706f63616c797073650000000000000000000000000000000000000000000081525081526020016040518060400160405280600a81526020017f41726d61676564646f6e0000000000000000000000000000000000000000000081525081526020016040518060400160405280600581526020017f426561737400000000000000000000000000000000000000000000000000000081525081526020016040518060400160405280600881526020017f426568656d6f746800000000000000000000000000000000000000000000000081525081526020016040518060400160405280600681526020017f426c69676874000000000000000000000000000000000000000000000000000081525081525060109060066200039b92919062000cd4565b5060405180606001604052806040518060400160405280600481526020017f42616e650000000000000000000000000000000000000000000000000000000081525081526020016040518060400160405280600481526020017f526f6f740000000000000000000000000000000000000000000000000000000081525081526020016040518060400160405280600481526020017f4d6f6f6e0000000000000000000000000000000000000000000000000000000081525081525060119060036200046892919062000c6d565b503480156200047657600080fd5b506040518060400160405280600881526020017f304e3120476561720000000000000000000000000000000000000000000000008152506040518060400160405280600781526020017f304e3147454152000000000000000000000000000000000000000000000000008152508160009080519060200190620004fb92919062000d3b565b5080600190805190602001906200051492919062000d3b565b50505060016007819055506200053f6200053362000b4d60201b60201c565b62000b5560201b60201c565b60405180606001604052807f4b6174616e61000000000000000000000000000000000000000000000000000081526020017f48616e6467756e0000000000000000000000000000000000000000000000000081526020017f506f6973696f6e20446172747300000000000000000000000000000000000000815250600d6000600e600081548110620005d657620005d562000f2f565b5b90600052602060002001548152602001908152602001600020906003620005ff92919062000dcc565b5060405180606001604052807f4b6174616e61000000000000000000000000000000000000000000000000000081526020017f48616e6467756e0000000000000000000000000000000000000000000000000081526020017f506f6973696f6e20446172747300000000000000000000000000000000000000815250600d6000600e60018154811062000697576200069662000f2f565b5b90600052602060002001548152602001908152602001600020906003620006c092919062000dcc565b5060405180606001604052807f4b6174616e61000000000000000000000000000000000000000000000000000081526020017f48616e6467756e0000000000000000000000000000000000000000000000000081526020017f506f6973696f6e20446172747300000000000000000000000000000000000000815250600d6000600e60028154811062000758576200075762000f2f565b5b906000526020600020015481526020019081526020016000209060036200078192919062000dcc565b5060405180606001604052807f4b6174616e61000000000000000000000000000000000000000000000000000081526020017f48616e6467756e0000000000000000000000000000000000000000000000000081526020017f506f6973696f6e20446172747300000000000000000000000000000000000000815250600d6000600e60038154811062000819576200081862000f2f565b5b906000526020600020015481526020019081526020016000209060036200084292919062000dcc565b5060405180606001604052807f4b6174616e61000000000000000000000000000000000000000000000000000081526020017f48616e6467756e0000000000000000000000000000000000000000000000000081526020017f506f6973696f6e20446172747300000000000000000000000000000000000000815250600d6000600e600481548110620008da57620008d962000f2f565b5b906000526020600020015481526020019081526020016000209060036200090392919062000dcc565b5060405180606001604052807f4b6174616e61000000000000000000000000000000000000000000000000000081526020017f48616e6467756e0000000000000000000000000000000000000000000000000081526020017f506f6973696f6e20446172747300000000000000000000000000000000000000815250600d6000600e6005815481106200099b576200099a62000f2f565b5b90600052602060002001548152602001908152602001600020906003620009c492919062000dcc565b5060405180606001604052807f4b6174616e61000000000000000000000000000000000000000000000000000081526020017f48616e6467756e0000000000000000000000000000000000000000000000000081526020017f506f6973696f6e20446172747300000000000000000000000000000000000000815250600d6000600e60068154811062000a5c5762000a5b62000f2f565b5b9060005260206000200154815260200190815260200160002090600362000a8592919062000dcc565b5060405180606001604052807f4b6174616e61000000000000000000000000000000000000000000000000000081526020017f48616e6467756e0000000000000000000000000000000000000000000000000081526020017f506f6973696f6e20446172747300000000000000000000000000000000000000815250600d6000600e60078154811062000b1d5762000b1c62000f2f565b5b9060005260206000200154815260200190815260200160002090600362000b4692919062000dcc565b5062000f5e565b600033905090565b6000600860009054906101000a900473ffffffffffffffffffffffffffffffffffffffff16905081600860006101000a81548173ffffffffffffffffffffffffffffffffffffffff021916908373ffffffffffffffffffffffffffffffffffffffff1602179055508173ffffffffffffffffffffffffffffffffffffffff168173ffffffffffffffffffffffffffffffffffffffff167f8be0079c531659141344cd1fd0a4f28419497f9722a3daafe3b4186f6b6457e060405160405180910390a35050565b82805482825590600052602060002090810192821562000c5a579160200282015b8281111562000c5957825182559160200191906001019062000c3c565b5b50905062000c69919062000e1e565b5090565b82805482825590600052602060002090810192821562000cc1579160200282015b8281111562000cc057825182908051906020019062000caf92919062000d3b565b509160200191906001019062000c8e565b5b50905062000cd0919062000e3d565b5090565b82805482825590600052602060002090810192821562000d28579160200282015b8281111562000d2757825182908051906020019062000d1692919062000d3b565b509160200191906001019062000cf5565b5b50905062000d37919062000e3d565b5090565b82805462000d499062000eca565b90600052602060002090601f01602090048101928262000d6d576000855562000db9565b82601f1062000d8857805160ff191683800117855562000db9565b8280016001018555821562000db9579182015b8281111562000db857825182559160200191906001019062000d9b565b5b50905062000dc8919062000e65565b5090565b82805482825590600052602060002090810192821562000e0b579160200282015b8281111562000e0a57825182559160200191906001019062000ded565b5b50905062000e1a919062000e1e565b5090565b5b8082111562000e3957600081600090555060010162000e1f565b5090565b5b8082111562000e61576000818162000e57919062000e84565b5060010162000e3e565b5090565b5b8082111562000e8057600081600090555060010162000e66565b5090565b50805462000e929062000eca565b6000825580601f1062000ea6575062000ec7565b601f01602090049060005260206000209081019062000ec6919062000e65565b5b50565b6000600282049050600182168062000ee357607f821691505b6020821081141562000efa5762000ef962000f00565b5b50919050565b7f4e487b7100000000000000000000000000000000000000000000000000000000600052602260045260246000fd5b7f4e487b7100000000000000000000000000000000000000000000000000000000600052603260045260246000fd5b614ed08062000f6e6000396000f3fe6080604052600436106101d85760003560e01c8063718e9fc511610102578063a56d773011610095578063e985e9c511610064578063e985e9c51461067b578063efef39a1146106b8578063f2fde38b146106d4578063fd140b5a146106fd576101d8565b8063a56d7730146105bf578063b88d4fde146105ea578063c87b56dd14610613578063d75e611014610650576101d8565b806395d89b41116100d157806395d89b41146105155780639d2cc43614610540578063a22cb4651461056b578063a35f77ff14610594576101d8565b8063718e9fc51461046b57806375a15e95146104965780638979a646146104bf5780638da5cb5b146104ea576101d8565b806323b872dd1161017a5780636352211e116101495780636352211e146103b157806370a08231146103ee578063715018a61461042b578063718bc4af14610442576101d8565b806323b872dd1461030b5780632750fc781461033457806329fc6bae1461035d57806342842e0e14610388576101d8565b8063095ea7b3116101b6578063095ea7b31461028257806318160ddd146102ab578063186601ca146102d65780631e4bd42c14610301576101d8565b806301ffc9a7146101dd57806306fdde031461021a578063081812fc14610245575b600080fd5b3480156101e957600080fd5b5061020460048036038101906101ff919061332d565b610728565b6040516102119190613d0a565b60405180910390f35b34801561022657600080fd5b5061022f61080a565b60405161023c9190613d25565b60405180910390f35b34801561025157600080fd5b5061026c60048036038101906102679190613387565b61089c565b6040516102799190613c7a565b60405180910390f35b34801561028e57600080fd5b506102a960048036038101906102a491906132c0565b610921565b005b3480156102b757600080fd5b506102c0610a39565b6040516102cd9190614067565b60405180910390f35b3480156102e257600080fd5b506102eb610a43565b6040516102f89190613d0a565b60405180910390f35b610309610a56565b005b34801561031757600080fd5b50610332600480360381019061032d91906131aa565b610d50565b005b34801561034057600080fd5b5061035b60048036038101906103569190613300565b610db0565b005b34801561036957600080fd5b50610372610e49565b60405161037f9190613d0a565b60405180910390f35b34801561039457600080fd5b506103af60048036038101906103aa91906131aa565b610e5c565b005b3480156103bd57600080fd5b506103d860048036038101906103d39190613387565b610e7c565b6040516103e59190613c7a565b60405180910390f35b3480156103fa57600080fd5b506104156004803603810190610410919061313d565b610f2e565b6040516104229190614067565b60405180910390f35b34801561043757600080fd5b50610440610fe6565b005b34801561044e57600080fd5b5061046960048036038101906104649190613300565b61106e565b005b34801561047757600080fd5b50610480611107565b60405161048d9190614067565b60405180910390f35b3480156104a257600080fd5b506104bd60048036038101906104b8919061313d565b61110d565b005b3480156104cb57600080fd5b506104d46111b4565b6040516104e19190614067565b60405180910390f35b3480156104f657600080fd5b506104ff6111c6565b60405161050c9190613c7a565b60405180910390f35b34801561052157600080fd5b5061052a6111f0565b6040516105379190613d25565b60405180910390f35b34801561054c57600080fd5b50610555611282565b6040516105629190614067565b60405180910390f35b34801561057757600080fd5b50610592600480360381019061058d9190613280565b611287565b005b3480156105a057600080fd5b506105a9611408565b6040516105b69190614067565b60405180910390f35b3480156105cb57600080fd5b506105d4611413565b6040516105e19190614067565b60405180910390f35b3480156105f657600080fd5b50610611600480360381019061060c91906131fd565b61141e565b005b34801561061f57600080fd5b5061063a60048036038101906106359190613387565b611480565b6040516106479190613d25565b60405180910390f35b34801561065c57600080fd5b5061066561185b565b6040516106729190614067565b60405180910390f35b34801561068757600080fd5b506106a2600480360381019061069d919061316a565b611860565b6040516106af9190613d0a565b60405180910390f35b6106d260048036038101906106cd9190613387565b6118f4565b005b3480156106e057600080fd5b506106fb60048036038101906106f6919061313d565b611c02565b005b34801561070957600080fd5b50610712611cfa565b60405161071f9190614067565b60405180910390f35b60007f80ac58cd000000000000000000000000000000000000000000000000000000007bffffffffffffffffffffffffffffffffffffffffffffffffffffffff1916827bffffffffffffffffffffffffffffffffffffffffffffffffffffffff191614806107f357507f5b5e139f000000000000000000000000000000000000000000000000000000007bffffffffffffffffffffffffffffffffffffffffffffffffffffffff1916827bffffffffffffffffffffffffffffffffffffffffffffffffffffffff1916145b80610803575061080282611cff565b5b9050919050565b60606000805461081990614305565b80601f016020809104026020016040519081016040528092919081815260200182805461084590614305565b80156108925780601f1061086757610100808354040283529160200191610892565b820191906000526020600020905b81548152906001019060200180831161087557829003601f168201915b5050505050905090565b60006108a782611d69565b6108e6576040517f08c379a00000000000000000000000000000000000000000000000000000000081526004016108dd90613f47565b60405180910390fd5b6004600083815260200190815260200160002060009054906101000a900473ffffffffffffffffffffffffffffffffffffffff169050919050565b600061092c82610e7c565b90508073ffffffffffffffffffffffffffffffffffffffff168373ffffffffffffffffffffffffffffffffffffffff16141561099d576040517f08c379a000000000000000000000000000000000000000000000000000000000815260040161099490613fe7565b60405180910390fd5b8073ffffffffffffffffffffffffffffffffffffffff166109bc611dd5565b73ffffffffffffffffffffffffffffffffffffffff1614806109eb57506109ea816109e5611dd5565b611860565b5b610a2a576040517f08c379a0000000000000000000000000000000000000000000000000000000008152600401610a2190613ea7565b60405180910390fd5b610a348383611ddd565b505050565b6000600954905090565b600860149054906101000a900460ff1681565b600860149054906101000a900460ff16610aa5576040517f08c379a0000000000000000000000000000000000000000000000000000000008152600401610a9c90613da7565b60405180910390fd5b600860159054906101000a900460ff16610af4576040517f08c379a0000000000000000000000000000000000000000000000000000000008152600401610aeb90613e87565b60405180910390fd5b611e14604d610b039190614130565b60095410610b46576040517f08c379a0000000000000000000000000000000000000000000000000000000008152600401610b3d90613de7565b60405180910390fd5b6000610b5133611e96565b9050600080600090505b8251811015610bcb576000600c6000858481518110610b7d57610b7c614483565b5b6020026020010151815260200190815260200160002060009054906101000a900460ff16905080610bb7578280610bb390614368565b9350505b508080610bc390614368565b915050610b5b565b5060008111610c0f576040517f08c379a0000000000000000000000000000000000000000000000000000000008152600401610c0690613f07565b60405180910390fd5b3481662386f26fc10000610c2391906141b7565b1115610c64576040517f08c379a0000000000000000000000000000000000000000000000000000000008152600401610c5b90613d47565b60405180910390fd5b60005b8251811015610d4b576000600c6000858481518110610c8957610c88614483565b5b6020026020010151815260200190815260200160002060009054906101000a900460ff16905080610d375760096000815480929190610cc790614368565b91905055506001600c6000868581518110610ce557610ce4614483565b5b6020026020010151815260200190815260200160002060006101000a81548160ff021916908315150217905550610d3633858481518110610d2957610d28614483565b5b60200260200101516120cc565b5b508080610d4390614368565b915050610c67565b505050565b610d61610d5b611dd5565b826120ea565b610da0576040517f08c379a0000000000000000000000000000000000000000000000000000000008152600401610d9790614027565b60405180910390fd5b610dab8383836121c8565b505050565b610db8611dd5565b73ffffffffffffffffffffffffffffffffffffffff16610dd66111c6565b73ffffffffffffffffffffffffffffffffffffffff1614610e2c576040517f08c379a0000000000000000000000000000000000000000000000000000000008152600401610e2390613f67565b60405180910390fd5b80600860146101000a81548160ff02191690831515021790555050565b600860159054906101000a900460ff1681565b610e778383836040518060200160405280600081525061141e565b505050565b6000806002600084815260200190815260200160002060009054906101000a900473ffffffffffffffffffffffffffffffffffffffff169050600073ffffffffffffffffffffffffffffffffffffffff168173ffffffffffffffffffffffffffffffffffffffff161415610f25576040517f08c379a0000000000000000000000000000000000000000000000000000000008152600401610f1c90613ee7565b60405180910390fd5b80915050919050565b60008073ffffffffffffffffffffffffffffffffffffffff168273ffffffffffffffffffffffffffffffffffffffff161415610f9f576040517f08c379a0000000000000000000000000000000000000000000000000000000008152600401610f9690613ec7565b60405180910390fd5b600360008373ffffffffffffffffffffffffffffffffffffffff1673ffffffffffffffffffffffffffffffffffffffff168152602001908152602001600020549050919050565b610fee611dd5565b73ffffffffffffffffffffffffffffffffffffffff1661100c6111c6565b73ffffffffffffffffffffffffffffffffffffffff1614611062576040517f08c379a000000000000000000000000000000000000000000000000000000000815260040161105990613f67565b60405180910390fd5b61106c6000612424565b565b611076611dd5565b73ffffffffffffffffffffffffffffffffffffffff166110946111c6565b73ffffffffffffffffffffffffffffffffffffffff16146110ea576040517f08c379a00000000000000000000000000000000000000000000000000000000081526004016110e190613f67565b60405180910390fd5b80600860156101000a81548160ff02191690831515021790555050565b611e1481565b80600a60006101000a81548173ffffffffffffffffffffffffffffffffffffffff021916908373ffffffffffffffffffffffffffffffffffffffff160217905550600a60009054906101000a900473ffffffffffffffffffffffffffffffffffffffff16600b60006101000a81548173ffffffffffffffffffffffffffffffffffffffff021916908373ffffffffffffffffffffffffffffffffffffffff16021790555050565b611e14604d6111c39190614130565b81565b6000600860009054906101000a900473ffffffffffffffffffffffffffffffffffffffff16905090565b6060600180546111ff90614305565b80601f016020809104026020016040519081016040528092919081815260200182805461122b90614305565b80156112785780601f1061124d57610100808354040283529160200191611278565b820191906000526020600020905b81548152906001019060200180831161125b57829003601f168201915b5050505050905090565b60e981565b61128f611dd5565b73ffffffffffffffffffffffffffffffffffffffff168273ffffffffffffffffffffffffffffffffffffffff1614156112fd576040517f08c379a00000000000000000000000000000000000000000000000000000000081526004016112f490613e47565b60405180910390fd5b806005600061130a611dd5565b73ffffffffffffffffffffffffffffffffffffffff1673ffffffffffffffffffffffffffffffffffffffff16815260200190815260200160002060008473ffffffffffffffffffffffffffffffffffffffff1673ffffffffffffffffffffffffffffffffffffffff16815260200190815260200160002060006101000a81548160ff0219169083151502179055508173ffffffffffffffffffffffffffffffffffffffff166113b7611dd5565b73ffffffffffffffffffffffffffffffffffffffff167f17307eab39ab6107e8899845ad3d59bd9653f200f220920489ca2b5937696c31836040516113fc9190613d0a565b60405180910390a35050565b662386f26fc1000081565b66b1a2bc2ec5000081565b61142f611429611dd5565b836120ea565b61146e576040517f08c379a000000000000000000000000000000000000000000000000000000000815260040161146590614027565b60405180910390fd5b61147a848484846124ea565b50505050565b606061148a613000565b60405180610120016040528060fd8152602001614d5e60fd9139816000601181106114b8576114b7614483565b5b602002018190525060005b60088110156115a757600060016002836114dd91906141b7565b6114e79190614130565b905061151185600e848154811061150157611500614483565b5b9060005260206000200154612546565b83826011811061152457611523614483565b5b602002018190525061154d601460028361153e9190614130565b61154891906141b7565b61290f565b60405160200161155d9190613c4d565b6040516020818303038152906040528360018361157a9190614130565b6011811061158b5761158a614483565b5b602002018190525050808061159f90614368565b9150506114c3565b506040518060400160405280600d81526020017f3c2f746578743e3c2f7376673e00000000000000000000000000000000000000815250816010601181106115f2576115f1614483565b5b60200201819052506000816000601181106116105761160f614483565b5b60200201518260016011811061162957611628614483565b5b60200201518360026011811061164257611641614483565b5b60200201518460036011811061165b5761165a614483565b5b60200201518560046011811061167457611673614483565b5b60200201518660056011811061168d5761168c614483565b5b6020020151876006601181106116a6576116a5614483565b5b6020020151886007601181106116bf576116be614483565b5b6020020151896008601181106116d8576116d7614483565b5b60200201516040516020016116f599989796959493929190613a85565b6040516020818303038152906040529050808260096011811061171b5761171a614483565b5b602002015183600a6011811061173457611733614483565b5b602002015184600b6011811061174d5761174c614483565b5b602002015185600c6011811061176657611765614483565b5b602002015186600d6011811061177f5761177e614483565b5b602002015187600e6011811061179857611797614483565b5b602002015188600f601181106117b1576117b0614483565b5b6020020151896010601181106117ca576117c9614483565b5b60200201516040516020016117e799989796959493929190613a85565b6040516020818303038152906040529050600061182c8561180784612a70565b604051602001611818929190613c04565b604051602081830303815290604052612a70565b90508060405160200161183f9190613be2565b6040516020818303038152906040529150819350505050919050565b600781565b6000600560008473ffffffffffffffffffffffffffffffffffffffff1673ffffffffffffffffffffffffffffffffffffffff16815260200190815260200160002060008373ffffffffffffffffffffffffffffffffffffffff1673ffffffffffffffffffffffffffffffffffffffff16815260200190815260200160002060009054906101000a900460ff16905092915050565b6002600754141561193a576040517f08c379a000000000000000000000000000000000000000000000000000000000815260040161193190614047565b60405180910390fd5b6002600781905550600860149054906101000a900460ff16611991576040517f08c379a000000000000000000000000000000000000000000000000000000000815260040161198890613da7565b60405180910390fd5b600860159054906101000a900460ff16156119e1576040517f08c379a00000000000000000000000000000000000000000000000000000000081526004016119d890614007565b60405180910390fd5b611e14604d6119f09190614130565b60095410611a33576040517f08c379a0000000000000000000000000000000000000000000000000000000008152600401611a2a90613de7565b60405180910390fd5b611e1481600954611a449190614130565b1115611a85576040517f08c379a0000000000000000000000000000000000000000000000000000000008152600401611a7c90613f87565b60405180910390fd5b3481662386f26fc10000611a9991906141b7565b1115611ada576040517f08c379a0000000000000000000000000000000000000000000000000000000008152600401611ad190613d47565b60405180910390fd5b6007811115611b1e576040517f08c379a0000000000000000000000000000000000000000000000000000000008152600401611b1590613fc7565b60405180910390fd5b60005b600182611b2e9190614130565b811015611bf657600080600090505b611e14604d611b4c9190614130565b811015611bbf57600c600082815260200190815260200160002060009054906101000a900460ff16611bac578091506001600c600083815260200190815260200160002060006101000a81548160ff021916908315150217905550611bbf565b8080611bb790614368565b915050611b3d565b5060096000815480929190611bd390614368565b9190505550611be233826120cc565b508080611bee90614368565b915050611b21565b50600160078190555050565b611c0a611dd5565b73ffffffffffffffffffffffffffffffffffffffff16611c286111c6565b73ffffffffffffffffffffffffffffffffffffffff1614611c7e576040517f08c379a0000000000000000000000000000000000000000000000000000000008152600401611c7590613f67565b60405180910390fd5b600073ffffffffffffffffffffffffffffffffffffffff168173ffffffffffffffffffffffffffffffffffffffff161415611cee576040517f08c379a0000000000000000000000000000000000000000000000000000000008152600401611ce590613dc7565b60405180910390fd5b611cf781612424565b50565b604d81565b60007f01ffc9a7000000000000000000000000000000000000000000000000000000007bffffffffffffffffffffffffffffffffffffffffffffffffffffffff1916827bffffffffffffffffffffffffffffffffffffffffffffffffffffffff1916149050919050565b60008073ffffffffffffffffffffffffffffffffffffffff166002600084815260200190815260200160002060009054906101000a900473ffffffffffffffffffffffffffffffffffffffff1673ffffffffffffffffffffffffffffffffffffffff1614159050919050565b600033905090565b816004600083815260200190815260200160002060006101000a81548173ffffffffffffffffffffffffffffffffffffffff021916908373ffffffffffffffffffffffffffffffffffffffff160217905550808273ffffffffffffffffffffffffffffffffffffffff16611e5083610e7c565b73ffffffffffffffffffffffffffffffffffffffff167f8c5be1e5ebec7d5bd14f71427d1e84f3dd0314c0f7b2291e5b200ac8c7c3b92560405160405180910390a45050565b60606000600b60009054906101000a900473ffffffffffffffffffffffffffffffffffffffff1673ffffffffffffffffffffffffffffffffffffffff166370a08231846040518263ffffffff1660e01b8152600401611ef59190613c7a565b60206040518083038186803b158015611f0d57600080fd5b505afa158015611f21573d6000803e3d6000fd5b505050506040513d601f19601f82011682018060405250810190611f4591906133b4565b905060008111611f8a576040517f08c379a0000000000000000000000000000000000000000000000000000000008152600401611f8190613d67565b60405180910390fd5b60008167ffffffffffffffff811115611fa657611fa56144b2565b5b604051908082528060200260200182016040528015611fd45781602001602082028036833780820191505090505b50905060005b828110156120c157600b60009054906101000a900473ffffffffffffffffffffffffffffffffffffffff1673ffffffffffffffffffffffffffffffffffffffff16632f745c5986836040518363ffffffff1660e01b815260040161203f929190613ce1565b60206040518083038186803b15801561205757600080fd5b505afa15801561206b573d6000803e3d6000fd5b505050506040513d601f19601f8201168201806040525081019061208f91906133b4565b8282815181106120a2576120a1614483565b5b60200260200101818152505080806120b990614368565b915050611fda565b508092505050919050565b6120e6828260405180602001604052806000815250612bf5565b5050565b60006120f582611d69565b612134576040517f08c379a000000000000000000000000000000000000000000000000000000000815260040161212b90613e67565b60405180910390fd5b600061213f83610e7c565b90508073ffffffffffffffffffffffffffffffffffffffff168473ffffffffffffffffffffffffffffffffffffffff1614806121ae57508373ffffffffffffffffffffffffffffffffffffffff166121968461089c565b73ffffffffffffffffffffffffffffffffffffffff16145b806121bf57506121be8185611860565b5b91505092915050565b8273ffffffffffffffffffffffffffffffffffffffff166121e882610e7c565b73ffffffffffffffffffffffffffffffffffffffff161461223e576040517f08c379a000000000000000000000000000000000000000000000000000000000815260040161223590613fa7565b60405180910390fd5b600073ffffffffffffffffffffffffffffffffffffffff168273ffffffffffffffffffffffffffffffffffffffff1614156122ae576040517f08c379a00000000000000000000000000000000000000000000000000000000081526004016122a590613e27565b60405180910390fd5b6122b9838383612c50565b6122c4600082611ddd565b6001600360008573ffffffffffffffffffffffffffffffffffffffff1673ffffffffffffffffffffffffffffffffffffffff16815260200190815260200160002060008282546123149190614211565b925050819055506001600360008473ffffffffffffffffffffffffffffffffffffffff1673ffffffffffffffffffffffffffffffffffffffff168152602001908152602001600020600082825461236b9190614130565b92505081905550816002600083815260200190815260200160002060006101000a81548173ffffffffffffffffffffffffffffffffffffffff021916908373ffffffffffffffffffffffffffffffffffffffff160217905550808273ffffffffffffffffffffffffffffffffffffffff168473ffffffffffffffffffffffffffffffffffffffff167fddf252ad1be2c89b69c2b068fc378daa952ba7f163c4a11628f55a4df523b3ef60405160405180910390a4505050565b6000600860009054906101000a900473ffffffffffffffffffffffffffffffffffffffff16905081600860006101000a81548173ffffffffffffffffffffffffffffffffffffffff021916908373ffffffffffffffffffffffffffffffffffffffff1602179055508173ffffffffffffffffffffffffffffffffffffffff168173ffffffffffffffffffffffffffffffffffffffff167f8be0079c531659141344cd1fd0a4f28419497f9722a3daafe3b4186f6b6457e060405160405180910390a35050565b6124f58484846121c8565b61250184848484612c55565b612540576040517f08c379a000000000000000000000000000000000000000000000000000000000815260040161253790613d87565b60405180910390fd5b50505050565b60606000600d60008481526020019081526020016000208054806020026020016040519081016040528092919081815260200182805480156125a757602002820191906000526020600020905b815481526020019060010190808311612593575b5050505050905060006125da84866040516020016125c6929190613a42565b604051602081830303815290604052612dec565b90506000828351836125ec91906143c5565b815181106125fd576125fc614483565b5b60200260200101516040516020016126159190613a27565b6040516020818303038152906040529050600060158361263591906143c5565b9050600e8111156126915781600f80805490508561265391906143c5565b8154811061266457612663614483565b5b9060005260206000200160405160200161267f929190613b04565b60405160208183030381529060405291505b60138110612902576126a1613028565b60108080549050856126b391906143c5565b815481106126c4576126c3614483565b5b9060005260206000200180546126d990614305565b80601f016020809104026020016040519081016040528092919081815260200182805461270590614305565b80156127525780601f1061272757610100808354040283529160200191612752565b820191906000526020600020905b81548152906001019060200180831161273557829003601f168201915b50505050508160006002811061276b5761276a614483565b5b6020020181905250601180805490508561278591906143c5565b8154811061279657612795614483565b5b9060005260206000200180546127ab90614305565b80601f01602080910402602001604051908101604052809291908181526020018280546127d790614305565b80156128245780601f106127f957610100808354040283529160200191612824565b820191906000526020600020905b81548152906001019060200180831161280757829003601f168201915b50505050508160016002811061283d5761283c614483565b5b602002018190525060138214156128a9578060006002811061286257612861614483565b5b60200201518160016002811061287b5761287a614483565b5b60200201518460405160200161289393929190613b33565b6040516020818303038152906040529250612900565b806000600281106128bd576128bc614483565b5b6020020151816001600281106128d6576128d5614483565b5b6020020151846040516020016128ee93929190613b85565b60405160208183030381529060405292505b505b8194505050505092915050565b60606000821415612957576040518060400160405280600181526020017f30000000000000000000000000000000000000000000000000000000000000008152509050612a6b565b600082905060005b6000821461298957808061297290614368565b915050600a826129829190614186565b915061295f565b60008167ffffffffffffffff8111156129a5576129a46144b2565b5b6040519080825280601f01601f1916602001820160405280156129d75781602001600182028036833780820191505090505b5090505b60008514612a64576001826129f09190614211565b9150600a856129ff91906143c5565b6030612a0b9190614130565b60f81b818381518110612a2157612a20614483565b5b60200101907effffffffffffffffffffffffffffffffffffffffffffffffffffffffffffff1916908160001a905350600a85612a5d9190614186565b94506129db565b8093505050505b919050565b6060600082511415612a9357604051806020016040528060008152509050612bf0565b6000604051806060016040528060408152602001614e5b6040913990506000600360028551612ac29190614130565b612acc9190614186565b6004612ad891906141b7565b90506000602082612ae99190614130565b67ffffffffffffffff811115612b0257612b016144b2565b5b6040519080825280601f01601f191660200182016040528015612b345781602001600182028036833780820191505090505b509050818152600183018586518101602084015b81831015612baf576003830192508251603f8160121c1685015160f81b8252600182019150603f81600c1c1685015160f81b8252600182019150603f8160061c1685015160f81b8252600182019150603f811685015160f81b825260018201915050612b48565b600389510660018114612bc95760028114612bd957612be4565b613d3d60f01b6002830352612be4565b603d60f81b60018303525b50505050508093505050505b919050565b612bff8383612e1f565b612c0c6000848484612c55565b612c4b576040517f08c379a0000000000000000000000000000000000000000000000000000000008152600401612c4290613d87565b60405180910390fd5b505050565b505050565b6000612c768473ffffffffffffffffffffffffffffffffffffffff16612fed565b15612ddf578373ffffffffffffffffffffffffffffffffffffffff1663150b7a02612c9f611dd5565b8786866040518563ffffffff1660e01b8152600401612cc19493929190613c95565b602060405180830381600087803b158015612cdb57600080fd5b505af1925050508015612d0c57506040513d601f19601f82011682018060405250810190612d09919061335a565b60015b612d8f573d8060008114612d3c576040519150601f19603f3d011682016040523d82523d6000602084013e612d41565b606091505b50600081511415612d87576040517f08c379a0000000000000000000000000000000000000000000000000000000008152600401612d7e90613d87565b60405180910390fd5b805181602001fd5b63150b7a0260e01b7bffffffffffffffffffffffffffffffffffffffffffffffffffffffff1916817bffffffffffffffffffffffffffffffffffffffffffffffffffffffff191614915050612de4565b600190505b949350505050565b600081604051602001612dff9190613a6e565b6040516020818303038152906040528051906020012060001c9050919050565b600073ffffffffffffffffffffffffffffffffffffffff168273ffffffffffffffffffffffffffffffffffffffff161415612e8f576040517f08c379a0000000000000000000000000000000000000000000000000000000008152600401612e8690613f27565b60405180910390fd5b612e9881611d69565b15612ed8576040517f08c379a0000000000000000000000000000000000000000000000000000000008152600401612ecf90613e07565b60405180910390fd5b612ee460008383612c50565b6001600360008473ffffffffffffffffffffffffffffffffffffffff1673ffffffffffffffffffffffffffffffffffffffff1681526020019081526020016000206000828254612f349190614130565b92505081905550816002600083815260200190815260200160002060006101000a81548173ffffffffffffffffffffffffffffffffffffffff021916908373ffffffffffffffffffffffffffffffffffffffff160217905550808273ffffffffffffffffffffffffffffffffffffffff16600073ffffffffffffffffffffffffffffffffffffffff167fddf252ad1be2c89b69c2b068fc378daa952ba7f163c4a11628f55a4df523b3ef60405160405180910390a45050565b600080823b905060008111915050919050565b6040518061022001604052806011905b60608152602001906001900390816130105790505090565b60405180604001604052806002905b60608152602001906001900390816130375790505090565b600061306261305d846140a7565b614082565b90508281526020810184848401111561307e5761307d6144e6565b5b6130898482856142c3565b509392505050565b6000813590506130a081614d01565b92915050565b6000813590506130b581614d18565b92915050565b6000813590506130ca81614d2f565b92915050565b6000815190506130df81614d2f565b92915050565b600082601f8301126130fa576130f96144e1565b5b813561310a84826020860161304f565b91505092915050565b60008135905061312281614d46565b92915050565b60008151905061313781614d46565b92915050565b600060208284031215613153576131526144f0565b5b600061316184828501613091565b91505092915050565b60008060408385031215613181576131806144f0565b5b600061318f85828601613091565b92505060206131a085828601613091565b9150509250929050565b6000806000606084860312156131c3576131c26144f0565b5b60006131d186828701613091565b93505060206131e286828701613091565b92505060406131f386828701613113565b9150509250925092565b60008060008060808587031215613217576132166144f0565b5b600061322587828801613091565b945050602061323687828801613091565b935050604061324787828801613113565b925050606085013567ffffffffffffffff811115613268576132676144eb565b5b613274878288016130e5565b91505092959194509250565b60008060408385031215613297576132966144f0565b5b60006132a585828601613091565b92505060206132b6858286016130a6565b9150509250929050565b600080604083850312156132d7576132d66144f0565b5b60006132e585828601613091565b92505060206132f685828601613113565b9150509250929050565b600060208284031215613316576133156144f0565b5b6000613324848285016130a6565b91505092915050565b600060208284031215613343576133426144f0565b5b6000613351848285016130bb565b91505092915050565b6000602082840312156133705761336f6144f0565b5b600061337e848285016130d0565b91505092915050565b60006020828403121561339d5761339c6144f0565b5b60006133ab84828501613113565b91505092915050565b6000602082840312156133ca576133c96144f0565b5b60006133d884828501613128565b91505092915050565b6133ea81614245565b82525050565b6133f981614257565b82525050565b61341061340b82614263565b6143b1565b82525050565b6000613421826140ed565b61342b8185614103565b935061343b8185602086016142d2565b613444816144f5565b840191505092915050565b600061345a826140f8565b6134648185614114565b93506134748185602086016142d2565b61347d816144f5565b840191505092915050565b6000613493826140f8565b61349d8185614125565b93506134ad8185602086016142d2565b80840191505092915050565b600081546134c681614305565b6134d08186614125565b945060018216600081146134eb57600181146134fc5761352f565b60ff1983168652818601935061352f565b613505856140d8565b60005b8381101561352757815481890152600182019150602081019050613508565b838801955050505b50505092915050565b6000613545601083614114565b915061355082614506565b602082019050919050565b6000613568601783614114565b91506135738261452f565b602082019050919050565b600061358b603283614114565b915061359682614558565b604082019050919050565b60006135ae601183614114565b91506135b9826145a7565b602082019050919050565b60006135d1602683614114565b91506135dc826145d0565b604082019050919050565b60006135f4601183614114565b91506135ff8261461f565b602082019050919050565b6000613617601c83614114565b915061362282614648565b602082019050919050565b600061363a60a783614125565b915061364582614671565b60a782019050919050565b600061365d602483614114565b915061366882614758565b604082019050919050565b6000613680601983614114565b915061368b826147a7565b602082019050919050565b60006136a3600283614125565b91506136ae826147d0565b600282019050919050565b60006136c6602c83614114565b91506136d1826147f9565b604082019050919050565b60006136e9601383614114565b91506136f482614848565b602082019050919050565b600061370c600183614125565b915061371782614871565b600182019050919050565b600061372f603883614114565b915061373a8261489a565b604082019050919050565b6000613752600183614125565b915061375d826148e9565b600182019050919050565b6000613775602a83614114565b915061378082614912565b604082019050919050565b6000613798602983614114565b91506137a382614961565b604082019050919050565b60006137bb601683614114565b91506137c6826149b0565b602082019050919050565b60006137de600283614125565b91506137e9826149d9565b600282019050919050565b6000613801602083614114565b915061380c82614a02565b602082019050919050565b6000613824602c83614114565b915061382f82614a2b565b604082019050919050565b6000613847602083614114565b915061385282614a7a565b602082019050919050565b600061386a601583614114565b915061387582614aa3565b602082019050919050565b600061388d602983614114565b915061389882614acc565b604082019050919050565b60006138b0601083614114565b91506138bb82614b1b565b602082019050919050565b60006138d3602183614114565b91506138de82614b44565b604082019050919050565b60006138f6601483614114565b915061390182614b93565b602082019050919050565b6000613919601d83614125565b915061392482614bbc565b601d82019050919050565b600061393c601083614125565b915061394782614be5565b601082019050919050565b600061395f600f83614125565b915061396a82614c0e565b600f82019050919050565b6000613982600383614125565b915061398d82614c37565b600382019050919050565b60006139a5603183614114565b91506139b082614c60565b604082019050919050565b60006139c8601f83614114565b91506139d382614caf565b602082019050919050565b60006139eb601783614125565b91506139f682614cd8565b601782019050919050565b613a0a816142b9565b82525050565b613a21613a1c826142b9565b6143bb565b82525050565b6000613a3382846133ff565b60208201915081905092915050565b6000613a4e82856133ff565b602082019150613a5e8284613a10565b6020820191508190509392505050565b6000613a7a8284613488565b915081905092915050565b6000613a91828c613488565b9150613a9d828b613488565b9150613aa9828a613488565b9150613ab58289613488565b9150613ac18288613488565b9150613acd8287613488565b9150613ad98286613488565b9150613ae58285613488565b9150613af18284613488565b91508190509a9950505050505050505050565b6000613b108285613488565b9150613b1b826136ff565b9150613b2782846134b9565b91508190509392505050565b6000613b3e82613745565b9150613b4a8286613488565b9150613b55826136ff565b9150613b618285613488565b9150613b6c82613696565b9150613b788284613488565b9150819050949350505050565b6000613b9082613745565b9150613b9c8286613488565b9150613ba7826136ff565b9150613bb38285613488565b9150613bbe82613696565b9150613bca8284613488565b9150613bd582613975565b9150819050949350505050565b6000613bed8261390c565b9150613bf98284613488565b915081905092915050565b6000613c0f8261392f565b9150613c1b8285613a10565b602082019150613c2a8261362d565b9150613c368284613488565b9150613c41826137d1565b91508190509392505050565b6000613c58826139de565b9150613c648284613488565b9150613c6f82613952565b915081905092915050565b6000602082019050613c8f60008301846133e1565b92915050565b6000608082019050613caa60008301876133e1565b613cb760208301866133e1565b613cc46040830185613a01565b8181036060830152613cd68184613416565b905095945050505050565b6000604082019050613cf660008301856133e1565b613d036020830184613a01565b9392505050565b6000602082019050613d1f60008301846133f0565b92915050565b60006020820190508181036000830152613d3f818461344f565b905092915050565b60006020820190508181036000830152613d6081613538565b9050919050565b60006020820190508181036000830152613d808161355b565b9050919050565b60006020820190508181036000830152613da08161357e565b9050919050565b60006020820190508181036000830152613dc0816135a1565b9050919050565b60006020820190508181036000830152613de0816135c4565b9050919050565b60006020820190508181036000830152613e00816135e7565b9050919050565b60006020820190508181036000830152613e208161360a565b9050919050565b60006020820190508181036000830152613e4081613650565b9050919050565b60006020820190508181036000830152613e6081613673565b9050919050565b60006020820190508181036000830152613e80816136b9565b9050919050565b60006020820190508181036000830152613ea0816136dc565b9050919050565b60006020820190508181036000830152613ec081613722565b9050919050565b60006020820190508181036000830152613ee081613768565b9050919050565b60006020820190508181036000830152613f008161378b565b9050919050565b60006020820190508181036000830152613f20816137ae565b9050919050565b60006020820190508181036000830152613f40816137f4565b9050919050565b60006020820190508181036000830152613f6081613817565b9050919050565b60006020820190508181036000830152613f808161383a565b9050919050565b60006020820190508181036000830152613fa08161385d565b9050919050565b60006020820190508181036000830152613fc081613880565b9050919050565b60006020820190508181036000830152613fe0816138a3565b9050919050565b60006020820190508181036000830152614000816138c6565b9050919050565b60006020820190508181036000830152614020816138e9565b9050919050565b6000602082019050818103600083015261404081613998565b9050919050565b60006020820190508181036000830152614060816139bb565b9050919050565b600060208201905061407c6000830184613a01565b92915050565b600061408c61409d565b90506140988282614337565b919050565b6000604051905090565b600067ffffffffffffffff8211156140c2576140c16144b2565b5b6140cb826144f5565b9050602081019050919050565b60008190508160005260206000209050919050565b600081519050919050565b600081519050919050565b600082825260208201905092915050565b600082825260208201905092915050565b600081905092915050565b600061413b826142b9565b9150614146836142b9565b9250827fffffffffffffffffffffffffffffffffffffffffffffffffffffffffffffffff0382111561417b5761417a6143f6565b5b828201905092915050565b6000614191826142b9565b915061419c836142b9565b9250826141ac576141ab614425565b5b828204905092915050565b60006141c2826142b9565b91506141cd836142b9565b9250817fffffffffffffffffffffffffffffffffffffffffffffffffffffffffffffffff0483118215151615614206576142056143f6565b5b828202905092915050565b600061421c826142b9565b9150614227836142b9565b92508282101561423a576142396143f6565b5b828203905092915050565b600061425082614299565b9050919050565b60008115159050919050565b6000819050919050565b60007fffffffff0000000000000000000000000000000000000000000000000000000082169050919050565b600073ffffffffffffffffffffffffffffffffffffffff82169050919050565b6000819050919050565b82818337600083830152505050565b60005b838110156142f05780820151818401526020810190506142d5565b838111156142ff576000848401525b50505050565b6000600282049050600182168061431d57607f821691505b6020821081141561433157614330614454565b5b50919050565b614340826144f5565b810181811067ffffffffffffffff8211171561435f5761435e6144b2565b5b80604052505050565b6000614373826142b9565b91507fffffffffffffffffffffffffffffffffffffffffffffffffffffffffffffffff8214156143a6576143a56143f6565b5b600182019050919050565b6000819050919050565b6000819050919050565b60006143d0826142b9565b91506143db836142b9565b9250826143eb576143ea614425565b5b828206905092915050565b7f4e487b7100000000000000000000000000000000000000000000000000000000600052601160045260246000fd5b7f4e487b7100000000000000000000000000000000000000000000000000000000600052601260045260246000fd5b7f4e487b7100000000000000000000000000000000000000000000000000000000600052602260045260246000fd5b7f4e487b7100000000000000000000000000000000000000000000000000000000600052603260045260246000fd5b7f4e487b7100000000000000000000000000000000000000000000000000000000600052604160045260246000fd5b600080fd5b600080fd5b600080fd5b600080fd5b6000601f19601f8301169050919050565b7f45544820696e73756666696369656e7400000000000000000000000000000000600082015250565b7f4e6f20546f6b656e7320666f756e6420746f206d696e74000000000000000000600082015250565b7f4552433732313a207472616e7366657220746f206e6f6e20455243373231526560008201527f63656976657220696d706c656d656e7465720000000000000000000000000000602082015250565b7f436f6e747261637420696e616374697665000000000000000000000000000000600082015250565b7f4f776e61626c653a206e6577206f776e657220697320746865207a65726f206160008201527f6464726573730000000000000000000000000000000000000000000000000000602082015250565b7f416c6c20746f6b656e73206d696e746564000000000000000000000000000000600082015250565b7f4552433732313a20746f6b656e20616c7265616479206d696e74656400000000600082015250565b7f222c20226465736372697074696f6e223a2022304e312047656172206973206160008201527f2064657269766174697665206f66204c6f6f7420666f7220304e3120466f726360208201527f6520776974682072616e646f6d697a656420616476656e74757265722067656160408201527f722067656e65726174656420616e642073746f726564206f6e20636861696e2e60608201527f222c2022696d616765223a2022646174613a696d6167652f7376672b786d6c3b60808201527f6261736536342c0000000000000000000000000000000000000000000000000060a082015250565b7f4552433732313a207472616e7366657220746f20746865207a65726f2061646460008201527f7265737300000000000000000000000000000000000000000000000000000000602082015250565b7f4552433732313a20617070726f766520746f2063616c6c657200000000000000600082015250565b7f2220000000000000000000000000000000000000000000000000000000000000600082015250565b7f4552433732313a206f70657261746f7220717565727920666f72206e6f6e657860008201527f697374656e7420746f6b656e0000000000000000000000000000000000000000602082015250565b7f416c6c6f77204c69737420696e61637469766500000000000000000000000000600082015250565b7f2000000000000000000000000000000000000000000000000000000000000000600082015250565b7f4552433732313a20617070726f76652063616c6c6572206973206e6f74206f7760008201527f6e6572206e6f7220617070726f76656420666f7220616c6c0000000000000000602082015250565b7f2200000000000000000000000000000000000000000000000000000000000000600082015250565b7f4552433732313a2062616c616e636520717565727920666f7220746865207a6560008201527f726f206164647265737300000000000000000000000000000000000000000000602082015250565b7f4552433732313a206f776e657220717565727920666f72206e6f6e657869737460008201527f656e7420746f6b656e0000000000000000000000000000000000000000000000602082015250565b7f4e6f20546f6b656e73206c65667420746f206d696e7400000000000000000000600082015250565b7f227d000000000000000000000000000000000000000000000000000000000000600082015250565b7f4552433732313a206d696e7420746f20746865207a65726f2061646472657373600082015250565b7f4552433732313a20617070726f76656420717565727920666f72206e6f6e657860008201527f697374656e7420746f6b656e0000000000000000000000000000000000000000602082015250565b7f4f776e61626c653a2063616c6c6572206973206e6f7420746865206f776e6572600082015250565b7f5075726368617365203e204f4e495f5055424c49430000000000000000000000600082015250565b7f4552433732313a207472616e73666572206f6620746f6b656e2074686174206960008201527f73206e6f74206f776e0000000000000000000000000000000000000000000000602082015250565b7f546f6f206d756368204f6e314765617200000000000000000000000000000000600082015250565b7f4552433732313a20617070726f76616c20746f2063757272656e74206f776e6560008201527f7200000000000000000000000000000000000000000000000000000000000000602082015250565b7f4f6e6c792066726f6d20416c6c6f77204c697374000000000000000000000000600082015250565b7f646174613a6170706c69636174696f6e2f6a736f6e3b6261736536342c000000600082015250565b7f7b226e616d65223a202247656172202300000000000000000000000000000000600082015250565b7f2220636c6173733d2262617365223e0000000000000000000000000000000000600082015250565b7f202b310000000000000000000000000000000000000000000000000000000000600082015250565b7f4552433732313a207472616e736665722063616c6c6572206973206e6f74206f60008201527f776e6572206e6f7220617070726f766564000000000000000000000000000000602082015250565b7f5265656e7472616e637947756172643a207265656e7472616e742063616c6c00600082015250565b7f3c2f746578743e3c7465787420783d2231302220793d22000000000000000000600082015250565b614d0a81614245565b8114614d1557600080fd5b50565b614d2181614257565b8114614d2c57600080fd5b50565b614d388161426d565b8114614d4357600080fd5b50565b614d4f816142b9565b8114614d5a57600080fd5b5056fe3c73766720786d6c6e733d22687474703a2f2f7777772e77332e6f72672f323030302f73766722207072657365727665417370656374526174696f3d22784d696e594d696e206d656574222076696577426f783d223020302033353020333530223e3c7374796c653e2e62617365207b2066696c6c3a2077686974653b20666f6e742d66616d696c793a2073657269663b20666f6e742d73697a653a20313470783b207d3c2f7374796c653e3c726563742077696474683d223130302522206865696768743d2231303025222066696c6c3d22626c61636b22202f3e3c7465787420783d2231302220793d2232302220636c6173733d2262617365223e4142434445464748494a4b4c4d4e4f505152535455565758595a6162636465666768696a6b6c6d6e6f707172737475767778797a303132333435363738392b2fa2646970667358221220e1d7879734e16e2a2d1be810bfed0351c7adc8ad99c49081dec0c666ac3fdbc664736f6c63430008060033",
  "immutableReferences": {},
  "source": "pragma solidity ^0.8.6;\r\nimport \"@openzeppelin/contracts/token/ERC721/extensions/ERC721URIStorage.sol\";\r\nimport \"@openzeppelin/contracts/token/ERC721/extensions/IERC721Enumerable.sol\";\r\nimport \"@openzeppelin/contracts/security/ReentrancyGuard.sol\";\r\nimport \"@openzeppelin/contracts/access/Ownable.sol\";\r\nimport \"base64-sol/base64.sol\";\r\nimport \"./mocks/OniMock.sol\";\r\n\r\ncontract OniGear is ERC721URIStorage, ReentrancyGuard, Ownable {\r\n    // @dev - copied from ON1 contract as poss variables\r\n    uint256 public constant ONI_GIFT = 77;\r\n    uint256 public constant ONI_PUBLIC = 7_700;\r\n    uint256 public constant ONI_MAX = ONI_GIFT + ONI_PUBLIC;\r\n    uint256 public constant RESERVE = 233;\r\n    uint256 public constant PURCHASE_LIMIT = 7;\r\n    bool public activated;\r\n    bool public isAllowListActive;\r\n    uint256 public constant PRICE_ONI = 0.01 ether;\r\n    uint256 public constant PRICE_PUBLIC = 0.05 ether;\r\n\r\n    uint256 private _tokenCount;\r\n    address private _oniAddress;\r\n    IERC721Enumerable private _oniContract;\r\n    mapping(uint256 => bool) private _claimedList;\r\n    mapping(bytes32 => bytes32[]) private lookups;\r\n\r\n    // Optimise all variables using bytes32 instead of strings. Can't seem to initialise an array of bytes32 so have to create them individually\r\n    // and add to mapping at construction. Seems most gas efficient as contract gas heavy due to everything on chain\r\n    bytes32 private constant weaponCategory1 = \"PRIMARY WEAPON\";\r\n    bytes32 private constant weaponCategory2 = \"SECONDARY WEAPON\";\r\n    bytes32 private constant weaponsBytes1 = \"Katana\";\r\n    bytes32 private constant weaponsBytes2 = \"Handgun\";\r\n    bytes32 private constant weaponsBytes3 = \"Poision Darts\";\r\n\r\n    //Temporary array of categories until populate with real values.\r\n    bytes32[] private categories = [\r\n        weaponCategory1,\r\n        weaponCategory2,\r\n        weaponCategory1,\r\n        weaponCategory2,\r\n        weaponCategory1,\r\n        weaponCategory2,\r\n        weaponCategory1,\r\n        weaponCategory2\r\n    ];\r\n\r\n    string[] private suffixes = [\"of Power\", \"of Giants\", \"of the Twins\"];\r\n\r\n    string[] private namePrefixes = [\r\n        \"Agony\",\r\n        \"Apocalypse\",\r\n        \"Armageddon\",\r\n        \"Beast\",\r\n        \"Behemoth\",\r\n        \"Blight\"\r\n    ];\r\n\r\n    string[] private nameSuffixes = [\"Bane\", \"Root\", \"Moon\"];\r\n\r\n    function random(string memory input) internal pure returns (uint256) {\r\n        return uint256(keccak256(abi.encodePacked(input)));\r\n    }\r\n\r\n    function pluck(uint256 tokenId, bytes32 keyPrefix)\r\n        internal\r\n        view\r\n        returns (string memory)\r\n    {\r\n        bytes32[] memory sourceArray = lookups[keyPrefix];\r\n        uint256 rand = random(string(abi.encodePacked(keyPrefix, tokenId)));\r\n        string memory output = string(\r\n            abi.encodePacked(sourceArray[rand % sourceArray.length])\r\n        );\r\n        uint256 greatness = rand % 21;\r\n        if (greatness > 14) {\r\n            output = string(\r\n                abi.encodePacked(output, \" \", suffixes[rand % suffixes.length])\r\n            );\r\n        }\r\n        if (greatness >= 19) {\r\n            string[2] memory name;\r\n            name[0] = namePrefixes[rand % namePrefixes.length];\r\n            name[1] = nameSuffixes[rand % nameSuffixes.length];\r\n            if (greatness == 19) {\r\n                output = string(\r\n                    abi.encodePacked('\"', name[0], \" \", name[1], '\" ', output)\r\n                );\r\n            } else {\r\n                output = string(\r\n                    abi.encodePacked(\r\n                        '\"',\r\n                        name[0],\r\n                        \" \",\r\n                        name[1],\r\n                        '\" ',\r\n                        output,\r\n                        \" +1\"\r\n                    )\r\n                );\r\n            }\r\n        }\r\n        return output;\r\n    }\r\n\r\n    function tokenURI(uint256 tokenId)\r\n        public\r\n        view\r\n        override\r\n        returns (string memory)\r\n    {\r\n        //Optimise the tokenURI process by making a loop and using variables stored in mapping\r\n        string[17] memory parts;\r\n        parts[\r\n            0\r\n        ] = '<svg xmlns=\"http://www.w3.org/2000/svg\" preserveAspectRatio=\"xMinYMin meet\" viewBox=\"0 0 350 350\"><style>.base { fill: white; font-family: serif; font-size: 14px; }</style><rect width=\"100%\" height=\"100%\" fill=\"black\" /><text x=\"10\" y=\"20\" class=\"base\">';\r\n        for (uint256 i = 0; i < 8; i++) {\r\n            uint256 position = i * 2 + 1;\r\n            parts[position] = pluck(tokenId, categories[i]);\r\n            parts[position + 1] = string(\r\n                abi.encodePacked(\r\n                    '</text><text x=\"10\" y=\"',\r\n                    toString((position + 2) * 20),\r\n                    '\" class=\"base\">'\r\n                )\r\n            );\r\n        }\r\n\r\n        parts[16] = \"</text></svg>\";\r\n\r\n        string memory output = string(\r\n            abi.encodePacked(\r\n                parts[0],\r\n                parts[1],\r\n                parts[2],\r\n                parts[3],\r\n                parts[4],\r\n                parts[5],\r\n                parts[6],\r\n                parts[7],\r\n                parts[8]\r\n            )\r\n        );\r\n        output = string(\r\n            abi.encodePacked(\r\n                output,\r\n                parts[9],\r\n                parts[10],\r\n                parts[11],\r\n                parts[12],\r\n                parts[13],\r\n                parts[14],\r\n                parts[15],\r\n                parts[16]\r\n            )\r\n        );\r\n\r\n        string memory json = Base64.encode(\r\n            bytes(\r\n                string(\r\n                    abi.encodePacked(\r\n                        '{\"name\": \"Gear #',\r\n                        tokenId,\r\n                        '\", \"description\": \"0N1 Gear is a derivative of Loot for 0N1 Force with randomized adventurer gear generated and stored on chain.\", \"image\": \"data:image/svg+xml;base64,',\r\n                        Base64.encode(bytes(output)),\r\n                        '\"}'\r\n                    )\r\n                )\r\n            )\r\n        );\r\n        output = string(\r\n            abi.encodePacked(\"data:application/json;base64,\", json)\r\n        );\r\n\r\n        return output;\r\n    }\r\n\r\n    function totalSupply() public view returns (uint256 supply) {\r\n        return _tokenCount;\r\n    }\r\n\r\n    function setIsActive(bool _isActive) external onlyOwner {\r\n        activated = _isActive;\r\n    }\r\n\r\n    function setIsAllowListActive(bool _isAllowListActive) external onlyOwner {\r\n        isAllowListActive = _isAllowListActive;\r\n    }\r\n\r\n    //TODO - add owner purchase function\r\n\r\n    function purchase(uint256 numberOfTokens) external payable nonReentrant {\r\n        require(activated, \"Contract inactive\");\r\n        require(!isAllowListActive, \"Only from Allow List\");\r\n        require(_tokenCount < ONI_MAX, \"All tokens minted\");\r\n        require(\r\n            _tokenCount + numberOfTokens <= ONI_PUBLIC,\r\n            \"Purchase > ONI_PUBLIC\"\r\n        );\r\n        require(PRICE_ONI * numberOfTokens <= msg.value, \"ETH insufficient\");\r\n        require(numberOfTokens <= PURCHASE_LIMIT, \"Too much On1Gear\");\r\n        //TODO - Need to find a random unused ID and claim that...\r\n        for (uint256 i = 0; i < numberOfTokens+1; i++) {\r\n            uint256 idToMint;\r\n            for (uint256 j = 0; j < ONI_MAX; j++) {\r\n                if (!_claimedList[j]) {\r\n                    idToMint = j;\r\n                    //Add this here to ensure don't return the same value each time\r\n                    _claimedList[j] = true;\r\n                    break;\r\n                }\r\n            }\r\n            _tokenCount++;\r\n            _safeMint(msg.sender, idToMint);\r\n        }\r\n    }\r\n\r\n    function setOniContractAddress(address oniAddress) external {\r\n        _oniAddress = oniAddress;\r\n        _oniContract = IERC721Enumerable(_oniAddress);\r\n    }\r\n\r\n    function getTokenIdsForOni(address owner)\r\n        internal\r\n        view\r\n        returns (uint256[] memory tokenIds)\r\n    {\r\n        uint256 numberOfOnis = _oniContract.balanceOf(owner);\r\n        require(numberOfOnis > 0, \"No Tokens found to mint\");\r\n        uint256[] memory tokenIdsToReturn = new uint256[](numberOfOnis);\r\n        for (uint256 i = 0; i < numberOfOnis; i++) {\r\n            tokenIdsToReturn[i] = _oniContract.tokenOfOwnerByIndex(owner, i);\r\n        }\r\n        return tokenIdsToReturn;\r\n    }\r\n\r\n    function claimAllTokens() external payable {\r\n        require(activated, \"Contract inactive\");\r\n        require(isAllowListActive, \"Allow List inactive\");\r\n        require(_tokenCount < ONI_MAX, \"All tokens minted\");\r\n        uint256[] memory tokensOwnedByAddress = getTokenIdsForOni(msg.sender);\r\n\r\n        // Loop through all tokens available to this address and calculate how many are unclaimed.\r\n        // Removing items fom arrays in solidity isn't easy, hence not just mutating original array and removing taken elements.\r\n        // Also can't create a dynamic new array so in order to validate need to run the loop twice. :facepalm.\r\n\r\n        uint unclaimedOnis;\r\n        for (uint256 j = 0; j < tokensOwnedByAddress.length; j++) {\r\n            bool alreadyClaimed = _claimedList[tokensOwnedByAddress[j]];\r\n            if (!alreadyClaimed) {\r\n                unclaimedOnis++;\r\n            }\r\n        }\r\n        require(unclaimedOnis > 0, \"No Tokens left to mint\");\r\n        require(PRICE_ONI * unclaimedOnis <= msg.value, \"ETH insufficient\");\r\n\r\n        for (uint256 j = 0; j < tokensOwnedByAddress.length; j++) {\r\n            bool alreadyClaimed = _claimedList[tokensOwnedByAddress[j]];\r\n            if (!alreadyClaimed) {\r\n            _tokenCount++;\r\n            _claimedList[tokensOwnedByAddress[j]] = true;\r\n            _safeMint(msg.sender, tokensOwnedByAddress[j]);\r\n        }}\r\n    }\r\n\r\n    constructor() ERC721(\"0N1 Gear\", \"0N1GEAR\") Ownable() {\r\n        lookups[categories[0]] = [weaponsBytes1, weaponsBytes2, weaponsBytes3];\r\n        //TODO create static data as bytes as more space efficient?\r\n        lookups[categories[1]] = [weaponsBytes1, weaponsBytes2, weaponsBytes3];\r\n        lookups[categories[2]] = [weaponsBytes1, weaponsBytes2, weaponsBytes3];\r\n        lookups[categories[3]] = [weaponsBytes1, weaponsBytes2, weaponsBytes3];\r\n        lookups[categories[4]] = [weaponsBytes1, weaponsBytes2, weaponsBytes3];\r\n        lookups[categories[5]] = [weaponsBytes1, weaponsBytes2, weaponsBytes3];\r\n        lookups[categories[6]] = [weaponsBytes1, weaponsBytes2, weaponsBytes3];\r\n        lookups[categories[7]] = [weaponsBytes1, weaponsBytes2, weaponsBytes3];\r\n    }\r\n\r\n    function toString(uint256 value) internal pure returns (string memory) {\r\n        // Inspired by OraclizeAPI's implementation - MIT license\r\n        // https://github.com/oraclize/ethereum-api/blob/b42146b063c7d6ee1358846c198246239e9360e8/oraclizeAPI_0.4.25.sol\r\n\r\n        if (value == 0) {\r\n            return \"0\";\r\n        }\r\n        uint256 temp = value;\r\n        uint256 digits;\r\n        while (temp != 0) {\r\n            digits++;\r\n            temp /= 10;\r\n        }\r\n        bytes memory buffer = new bytes(digits);\r\n        while (value != 0) {\r\n            digits -= 1;\r\n            buffer[digits] = bytes1(uint8(48 + uint256(value % 10)));\r\n            value /= 10;\r\n        }\r\n        return string(buffer);\r\n    }\r\n}\r\n",
  "sourcePath": "C:\\Users\\Oli\\0n1Loot\\contracts\\0n1Gear.sol",
  "compiler": {
    "name": "solc",
    "version": "0.8.6+commit.11564f7e.Emscripten.clang"
  },
  "schemaVersion": "3.4.3",
  "updatedAt": "2021-09-20T20:14:44.220Z",
  "networkType": "ethereum",
  "devdoc": {
    "kind": "dev",
    "methods": {
      "approve(address,uint256)": {
        "details": "See {IERC721-approve}."
      },
      "balanceOf(address)": {
        "details": "See {IERC721-balanceOf}."
      },
      "getApproved(uint256)": {
        "details": "See {IERC721-getApproved}."
      },
      "isApprovedForAll(address,address)": {
        "details": "See {IERC721-isApprovedForAll}."
      },
      "name()": {
        "details": "See {IERC721Metadata-name}."
      },
      "owner()": {
        "details": "Returns the address of the current owner."
      },
      "ownerOf(uint256)": {
        "details": "See {IERC721-ownerOf}."
      },
      "renounceOwnership()": {
        "details": "Leaves the contract without owner. It will not be possible to call `onlyOwner` functions anymore. Can only be called by the current owner. NOTE: Renouncing ownership will leave the contract without an owner, thereby removing any functionality that is only available to the owner."
      },
      "safeTransferFrom(address,address,uint256)": {
        "details": "See {IERC721-safeTransferFrom}."
      },
      "safeTransferFrom(address,address,uint256,bytes)": {
        "details": "See {IERC721-safeTransferFrom}."
      },
      "setApprovalForAll(address,bool)": {
        "details": "See {IERC721-setApprovalForAll}."
      },
      "supportsInterface(bytes4)": {
        "details": "See {IERC165-supportsInterface}."
      },
      "symbol()": {
        "details": "See {IERC721Metadata-symbol}."
      },
      "tokenURI(uint256)": {
        "details": "See {IERC721Metadata-tokenURI}."
      },
      "transferFrom(address,address,uint256)": {
        "details": "See {IERC721-transferFrom}."
      },
      "transferOwnership(address)": {
        "details": "Transfers ownership of the contract to a new account (`newOwner`). Can only be called by the current owner."
      }
    },
    "version": 1
  },
  "userdoc": {
    "kind": "user",
    "methods": {},
    "version": 1
  }
}