{
  "contractName": "OniMock",
  "abi": [
    {
      "inputs": [
        {
          "internalType": "address",
          "name": "owner",
          "type": "address"
        },
        {
          "internalType": "uint256[]",
          "name": "tokenIds",
          "type": "uint256[]"
        }
      ],
      "name": "setOwnerOnis",
      "outputs": [],
      "stateMutability": "nonpayable",
      "type": "function"
    },
    {
      "inputs": [
        {
          "internalType": "address",
          "name": "owner",
          "type": "address"
        },
        {
          "internalType": "uint256",
          "name": "index",
          "type": "uint256"
        }
      ],
      "name": "tokenOfOwnerByIndex",
      "outputs": [
        {
          "internalType": "uint256",
          "name": "tokenId",
          "type": "uint256"
        }
      ],
      "stateMutability": "view",
      "type": "function",
      "constant": true
    },
    {
      "inputs": [
        {
          "internalType": "address",
          "name": "owner",
          "type": "address"
        }
      ],
      "name": "balanceOf",
      "outputs": [
        {
          "internalType": "uint256",
          "name": "",
          "type": "uint256"
        }
      ],
      "stateMutability": "view",
      "type": "function",
      "constant": true
    }
  ],
  "bytecode": "0x608060405234801561001057600080fd5b506104df806100206000396000f3fe608060405234801561001057600080fd5b50600436106100415760003560e01c80632f745c591461004657806370a0823114610076578063c6f996e3146100a6575b600080fd5b610060600480360381019061005b919061038d565b6100c2565b60405161006d91906103dc565b60405180910390f35b610090600480360381019061008b9190610300565b610178565b60405161009d91906103dc565b60405180910390f35b6100c060048036038101906100bb919061032d565b6101c3565b005b6000806000808573ffffffffffffffffffffffffffffffffffffffff1673ffffffffffffffffffffffffffffffffffffffff16815260200190815260200160002080548060200260200160405190810160405280929190818152602001828054801561014d57602002820191906000526020600020905b815481526020019060010190808311610139575b5050505050905080838151811061016757610166610433565b5b602002602001015191505092915050565b60008060008373ffffffffffffffffffffffffffffffffffffffff1673ffffffffffffffffffffffffffffffffffffffff168152602001908152602001600020805490509050919050565b81816000808673ffffffffffffffffffffffffffffffffffffffff1673ffffffffffffffffffffffffffffffffffffffff1681526020019081526020016000209190610210929190610216565b50505050565b828054828255906000526020600020908101928215610252579160200282015b82811115610251578235825591602001919060010190610236565b5b50905061025f9190610263565b5090565b5b8082111561027c576000816000905550600101610264565b5090565b60008135905061028f8161047b565b92915050565b60008083601f8401126102ab576102aa610467565b5b8235905067ffffffffffffffff8111156102c8576102c7610462565b5b6020830191508360208202830111156102e4576102e361046c565b5b9250929050565b6000813590506102fa81610492565b92915050565b60006020828403121561031657610315610476565b5b600061032484828501610280565b91505092915050565b60008060006040848603121561034657610345610476565b5b600061035486828701610280565b935050602084013567ffffffffffffffff81111561037557610374610471565b5b61038186828701610295565b92509250509250925092565b600080604083850312156103a4576103a3610476565b5b60006103b285828601610280565b92505060206103c3858286016102eb565b9150509250929050565b6103d681610429565b82525050565b60006020820190506103f160008301846103cd565b92915050565b600061040282610409565b9050919050565b600073ffffffffffffffffffffffffffffffffffffffff82169050919050565b6000819050919050565b7f4e487b7100000000000000000000000000000000000000000000000000000000600052603260045260246000fd5b600080fd5b600080fd5b600080fd5b600080fd5b600080fd5b610484816103f7565b811461048f57600080fd5b50565b61049b81610429565b81146104a657600080fd5b5056fea2646970667358221220b14bf7cb00fd5c62f7f85059027acbb614c142fa0aba41592887d1e28050713764736f6c63430008060033",
  "immutableReferences": {},
  "source": "pragma solidity ^0.8.6;\r\n\r\ncontract OniMock {\r\n    mapping(address => uint256[]) ownedTokensMap;\r\n\r\n    function setOwnerOnis(address owner, uint256[] calldata tokenIds) external {\r\n        ownedTokensMap[owner] = tokenIds;\r\n    }\r\n\r\n    function tokenOfOwnerByIndex(address owner, uint256 index)\r\n        external\r\n        view\r\n        returns (uint256 tokenId)\r\n    {\r\n        uint256[] memory ownedTokens = ownedTokensMap[owner];\r\n        return ownedTokens[index];\r\n    }\r\n\r\n    function balanceOf(address owner) external view returns (uint256) {\r\n        return ownedTokensMap[owner].length;\r\n    }\r\n}\r\n",
  "sourcePath": "C:\\Users\\Oli\\0n1Loot\\contracts\\mocks\\OniMock.sol",
  "compiler": {
    "name": "solc",
    "version": "0.8.6+commit.11564f7e.Emscripten.clang"
  },
  "schemaVersion": "3.4.3",
  "updatedAt": "2021-09-20T20:14:44.261Z",
  "networkType": "ethereum",
  "devdoc": {
    "kind": "dev",
    "methods": {},
    "version": 1
  },
  "userdoc": {
    "kind": "user",
    "methods": {},
    "version": 1
  }
}